096094722GCL002977                1888601279073613091300042900000Edward Dave Loa           AUTO PAYMENT GOLD'S GYM CL                                             0      04
096094722GCL002191                1888601325086403101200042900000Nuryanti Djapar           AUTO PAYMENT GOLD'S GYM CL                                             0      05
096094722GCL003028                4027363000139595111300032000000Tommy                     AUTO PAYMENT GOLD'S GYM CL                                             0      51
096094722GCL002967                4027363000139595111300032000000Tommy Tommy               AUTO PAYMENT GOLD'S GYM CL                                             0      51
096094722GCL002520                4055420012566002100900042900000Robertus Budi             AUTO PAYMENT GOLD'S GYM CL                                             0      05
096094722GCL001363                4137180302095920041000024000000Indra Gunadi Santosa      AUTO PAYMENT GOLD'S GYM CL                                             0      05
096094722GCL002254                4137180306398213041500042900000Monika Tirtawidjaja       AUTO PAYMENT GOLD'S GYM CL                                             0      05
096094722GCL002945                4137180307319267111400042900000Suniarti Ofora,Dwiwa      AUTO PAYMENT GOLD'S GYM CL                                             0      51
096094722200498                   4157350013682002120900026400000Dewi Marliana             AUTO PAYMENT GOLD'S GYM CL                                             0      04
096094722200203                   4157353098873017090800028000000Dita Juliana              AUTO PAYMENT GOLD'S GYM CL                                             0      05
096094722200252                   4157353280747003080700028000000Tanri Dwi Putra           AUTO PAYMENT GOLD'S GYM CL                                             0      05
096094722201292                   4157353344892001040900054000000Hanley Efendi             AUTO PAYMENT GOLD'S GYM CL                                             0      54
096094722GCL003506                4158450100662021091200032000000Eneng N                   AUTO PAYMENT GOLD'S GYM CL                                             0      51
096094722GCL002537                4201910089770985081400042900000Endah Susyana             AUTO PAYMENT GOLD'S GYM CL                                             0      83
096094722GCL003288                4201910153738744111400042900000Meiske Nahumury           AUTO PAYMENT GOLD'S GYM CL                                             0      51
096094722200723                   4201910193419008051300024000000Meiyanti Gunawan          AUTO PAYMENT GOLD'S GYM CL                                             0      51
096094722201284                   4201910204051006070800027000000Yanti K Sutanto           AUTO PAYMENT GOLD'S GYM CL                                             0      83
096094722GCL002616                4201910393702765081400042900000Irfan Permana             AUTO PAYMENT GOLD'S GYM CL                                             0      05
096094722GCL003191                4201910452741464101300042900000Nita Wijaya               AUTO PAYMENT GOLD'S GYM CL                                             0      83
096094722201819                   4201920084430881051300035000000Rully Suwandy             AUTO PAYMENT GOLD'S GYM CL                                             0      83
096094722GCL002930                4423730287114006111200042900000David Wong                AUTO PAYMENT GOLD'S GYM CL                                             0      51
096094722201476                   4472111101255053050800060000000Soeriani                  AUTO PAYMENT GOLD'S GYM CL                                             0      54
096094722200879                   4472111103648172041200048000000Eddy                      AUTO PAYMENT GOLD'S GYM CL                                             0      05
096094722202854                   4511970003790969021000030000000Yanti Onggo Saputra       AUTO PAYMENT GOLD'S GYM CL                                             0      54
096094722200575                   4512860012112009050900024000000Rudi Suriyanto            AUTO PAYMENT GOLD'S GYM CL                                             0      04
096094722200549                   4541780013754341080700028000000A. Fahmi                  AUTO PAYMENT GOLD'S GYM CL                                             0      54
096094722200757                   4541780013943332080800024000000Harjono                   AUTO PAYMENT GOLD'S GYM CL                                             0      54
096094722200103                   4541780015283927031000028000000Tan Susiana               AUTO PAYMENT GOLD'S GYM CL                                             0      05
096094722GCL001494                4541780015528214011100027000000Bunadi Lasyim             AUTO PAYMENT GOLD'S GYM CL                                             0      05
096094722200488                   4541790060456880120900028000000. Susanti                 AUTO PAYMENT GOLD'S GYM CL                                             0      54
096094722200742                   4541790060939091081000028000000Dian Puspita              AUTO PAYMENT GOLD'S GYM CL                                             0      05
096094722GCL002083                4541790061306126031300042900000Yanny Yanny               AUTO PAYMENT GOLD'S GYM CL                                             0      04
096094722202110                   4541790061627513110800030000000Lenni                     AUTO PAYMENT GOLD'S GYM CL                                             0      54
096094722GCL002854                4541790091107304101200032000000Helen Elizabeth           AUTO PAYMENT GOLD'S GYM CL                                             0      04
096094722201888                   4541791041541584121000025000000Frederick Wolfe           AUTO PAYMENT GOLD'S GYM CL                                             0      05
096094722GCL000587                4541791041637069011100042900000Fika Meitriza             AUTO PAYMENT GOLD'S GYM CL                                             0      04
096094722GCL000050                4544931103972460080800030000000Juliana                   AUTO PAYMENT GOLD'S GYM CL                                             0      05
096094722202142                   4544931103972460080800030000000Juliana                   AUTO PAYMENT GOLD'S GYM CL                                             0      05
096094722200746                   4544931105257621031100024000000Heny Heliana              AUTO PAYMENT GOLD'S GYM CL                                             0      05
096094722GCL001991                4544931105320122031200042900000Maria Karta               AUTO PAYMENT GOLD'S GYM CL                                             0      05
096094722GCL003464                4546331020153492101100032000000Hendra                    AUTO PAYMENT GOLD'S GYM CL                                             0      54
096094722200331                   4546335320082921061000028000000Patrisa Nova A.           AUTO PAYMENT GOLD'S GYM CL                                             0      05
096094722201951                   4556320017404304091100035000000Khow Hasan                AUTO PAYMENT GOLD'S GYM CL                                             0      05
096094722200728                   4556321120966809041200026400000Andy Jaya                 AUTO PAYMENT GOLD'S GYM CL                                             0      04
096094722GCL002975                4556321127872802041300042900000Herlina                   AUTO PAYMENT GOLD'S GYM CL                                             0      04
096094722GCL003029                4556880005223206031100032000000Tju Rusan                 AUTO PAYMENT GOLD'S GYM CL                                             0      83
096094722201337                   5184940100762958110800027000000Dessy Iskandar            AUTO PAYMENT GOLD'S GYM CL                                             0      54
096094722GCL001000                5184940101214132041100042900000Lim Lie Ye                AUTO PAYMENT GOLD'S GYM CL                                             0      83
096094722GCL000166                5188282202078009080800031790000Betty Betty               AUTO PAYMENT GOLD'S GYM CL                                             0      04
096094722GCL002791                5188560200920102031000032000000Winna Anastasia           AUTO PAYMENT GOLD'S GYM CL                                             0      04
096094722GCL002456                5188560299810107071000033000000Roy Saputra Wijoyo        AUTO PAYMENT GOLD'S GYM CL                                             0      05
096094722GCL002567                5188560299810107071000032000000Swattiningsih SwattiningsiAUTO PAYMENT GOLD'S GYM CL                                             0      05
096094722202068                   5189439037543701030900035000000Tjan Tjing Phing          AUTO PAYMENT GOLD'S GYM CL                                             0      54
096094722GCL000721                5256441140264520050900042900000Irius                     AUTO PAYMENT GOLD'S GYM CL                                             0      12
096094722200246                   5264220700009115071000026400000Buntoro Kurniawan         AUTO PAYMENT GOLD'S GYM CL                                             0      12
096094722200116                   5401840112570364101100028000000Fida H. Natara H          AUTO PAYMENT GOLD'S GYM CL                                             0      04
096094722200047                   5401840112805687080900028000000Sugiharto                 AUTO PAYMENT GOLD'S GYM CL                                             0      54
096094722200495                   5421670020149787031000024000000Diana Widjaja             AUTO PAYMENT GOLD'S GYM CL                                             0      54
096094722201824                   5421770190155851040900035000000Frisca Artinus            AUTO PAYMENT GOLD'S GYM CL                                             0      05
096094722202353                   5452996707716024100900035000000Effendi Benyamin          AUTO PAYMENT GOLD'S GYM CL                                             0      05
096094722GCL002581                5481160101548229061300042900000Eko Suyanto               AUTO PAYMENT GOLD'S GYM CL                                             0      51
096094722GCL001452                1888601038742805060900042900000Mediawaty                 AUTO PAYMENT GOLD'S GYM CL                                             0      14
096094722GCL002621                1002800624860614110900032000000Liong Lie Joen            AUTO PAYMENT GOLD'S GYM CL                                             0      14
096094722203069                   1002801008914712061300038500000Yulianti Yosephine        AUTO PAYMENT GOLD'S GYM CL                                             0      14
096094722200470                   5413220003210303091000024000000Yanli                     AUTO PAYMENT GOLD'S GYM CL                                             0      14
096094722GCL002452                1012800763926111071300033000000Willis Willis             AUTO PAYMENT GOLD'S GYM CL                                             0      14
096094722200193                   5409120030078127011100026400000Agus Salim                AUTO PAYMENT GOLD'S GYM CL                                             0      14
096094722GCL002735                5409120180069322101000042900000Samudra Wijaya            AUTO PAYMENT GOLD'S GYM CL                                             0      14
096094722GCL003062                4556320120195518041100042900000Joddy Wijaya              AUTO PAYMENT GOLD'S GYM CL                                             0      14
096094722GCL002154                1065600863979412031300042900000Laurensius Widyanto       AUTO PAYMENT GOLD'S GYM CL                                             0      14
096094722201139                   5409127773426819061300027000000Juliana                   AUTO PAYMENT GOLD'S GYM CL                                             0      14
096094722203601                   5413220001708324051000038500000Lindawati                 AUTO PAYMENT GOLD'S GYM CL                                             0      14
096094722GCL002844                5409122770014023071000032000000Tony Viton                AUTO PAYMENT GOLD'S GYM CL                                             0      14
096094722200198                   5413220010012718071000028000000Violetta                  AUTO PAYMENT GOLD'S GYM CL                                             0      14
096094722GCL000377                5413220004984401021100024000000Roberthus Usman           AUTO PAYMENT GOLD'S GYM CL                                             0      14
096094722GCL003510                1319700862529714061300032000000Christian                 AUTO PAYMENT GOLD'S GYM CL                                             0      14
096094722GCL002171                4556330010336833071000033000000Kasogi Taslim             AUTO PAYMENT GOLD'S GYM CL                                             0      14
096094722202598                   4556330250160927091000024000000Wilsam Tanto              AUTO PAYMENT GOLD'S GYM CL                                             0      14
096094722202540                   5413220005050202021100030000000Catherine Lidya           AUTO PAYMENT GOLD'S GYM CL                                             0      14
096094722GCL003426                1880801277692214081300032000000Stevanno G Rarung         AUTO PAYMENT GOLD'S GYM CL                                             0      14
096094722202455                   5409120022566618011100030000000Iwan Sugih Sujana         AUTO PAYMENT GOLD'S GYM CL                                             0      14
096094722200115                   5413220006410900031000026400000Ardianto Sucinta          AUTO PAYMENT GOLD'S GYM CL                                             0      33
096094722201236                   5409121080043524121000054000000Debby                     AUTO PAYMENT GOLD'S GYM CL                                             0      14
096094722203196                   1182800444031315081300077000000Nanik SE                  AUTO PAYMENT GOLD'S GYM CL                                             0      14
096094722200266                   5413220004667105011100028000000Evelin Sirin              AUTO PAYMENT GOLD'S GYM CL                                             0      14
096094722202707                   1012800763926117070900035000000Simin Simin               AUTO PAYMENT GOLD'S GYM CL                                             0      14
096094722202327                   5409120005117207111000035000000Elly Setiawai Laksono     AUTO PAYMENT GOLD'S GYM CL                                             0      14
096094722200282                   4556330110180024071000026400000Evita Indriani K          AUTO PAYMENT GOLD'S GYM CL                                             0      14
096094722GCL000333                4556320018095309111100024000000Dwi Santosa               AUTO PAYMENT GOLD'S GYM CL                                             0      14
096094722201099                   5409127771133714041000024000000Tahayu Sutanto            AUTO PAYMENT GOLD'S GYM CL                                             0      14
096094722202794                   1888601086076403021300030000000Lenny S Samosir           AUTO PAYMENT GOLD'S GYM CL                                             0      14
096094722201064                   1888801075502621120900026400000Silvanus Ryan             AUTO PAYMENT GOLD'S GYM CL                                             0      14
096094722200021                   1066800695759946070800026400000Ritter Rusli              AUTO PAYMENT GOLD'S GYM CL                                             0      14
096094722201305                   5413220280573316051100027000000Dewi Rosilawaty           AUTO PAYMENT GOLD'S GYM CL                                             0      14
096094722GCL003431                4556330009411605071000049500000Reyga Rivaldi             AUTO PAYMENT GOLD'S GYM CL                                             0      14
096094722GCL002702                4556330320104228061100032000000Rendy Rendy               AUTO PAYMENT GOLD'S GYM CL                                             0      14
096094722GCL001307                4556331980242613011100042900000Rika Puspita              AUTO PAYMENT GOLD'S GYM CL                                             0      14
096094722GCL001478                1888801056946102090900049500000Fadjar Prijatna Mulya     AUTO PAYMENT GOLD'S GYM CL                                             0      14
096094722200337                   5413228881164013121000028000000Edward Partogi Pasaribu   AUTO PAYMENT GOLD'S GYM CL                                             0      14
096094722GCL000209                5409120001303207111000030000000Johan Ng                  AUTO PAYMENT GOLD'S GYM CL                                             0      14
096094722200071                   4556321680272622041100028000000Ester Monni               AUTO PAYMENT GOLD'S GYM CL                                             0      14
096094722200568                   1888601120501804060800024000000Fika Meiritza             AUTO PAYMENT GOLD'S GYM CL                                             0      14
096094722200667                   5409127771052112051000028000000Ervinna                   AUTO PAYMENT GOLD'S GYM CL                                             0      14
096094722GCL002846                5413221980636114021100032000000Marjuki Tjen              AUTO PAYMENT GOLD'S GYM CL                                             0      14
096094722200356                   1002801051601414081300028000000Lolita Maria Mega S.      AUTO PAYMENT GOLD'S GYM CL                                             0      14
096094722GCL002573                4556328880934414051000042900000Sartika Maharani Sinaga   AUTO PAYMENT GOLD'S GYM CL                                             0      14
096094722GCL003008                1002800876968222081300032000000Sumarti Lili              AUTO PAYMENT GOLD'S GYM CL                                             0      14
096094722GCL002647                4556330250240620121100032000000Haryani Liwang            AUTO PAYMENT GOLD'S GYM CL                                             0      14
096094722200804                   5413220003566902101000024000000Yuliana                   AUTO PAYMENT GOLD'S GYM CL                                             0      14
096094722200697                   5413220002505117071000024000000Adam Gani                 AUTO PAYMENT GOLD'S GYM CL                                             0      14
096094722203039                   4556330410068614121100038500000Liana Lenita Yenny        AUTO PAYMENT GOLD'S GYM CL                                             0      14
096094722200127                   5413220006410900031000026400000Ardianto Sucinta          AUTO PAYMENT GOLD'S GYM CL                                             0      33
096094722203613                   5413220000450902121000038500000Seany Kusumawati          AUTO PAYMENT GOLD'S GYM CL                                             0      14
096094722203068                   5409120025474513041000038500000Willy Kusnadi             AUTO PAYMENT GOLD'S GYM CL                                             0      14
096094722201435                   5413221940084736081000049500000Jane Komaladi             AUTO PAYMENT GOLD'S GYM CL                                             0      14
096094722202758                   1888801034184008050900030000000Nicko Kartio              AUTO PAYMENT GOLD'S GYM CL                                             0      14
096094722202611                   4556322880213119091000030000000Denny Jahya               AUTO PAYMENT GOLD'S GYM CL                                             0      14
096094722200889                   5409120021807336011100026400000Emil Ibrahim              AUTO PAYMENT GOLD'S GYM CL                                             0      14
096094722200359                   5413220005177005021100028000000Yunisa Hindrawan          AUTO PAYMENT GOLD'S GYM CL                                             0      14
096094722GCL000831                5409121190037424051000027000000Yanti                     AUTO PAYMENT GOLD'S GYM CL                                             0      14
096094722203836                   4556320021165727061100026400000Naftali Haniko            AUTO PAYMENT GOLD'S GYM CL                                             0      14
096094722GCL002843                4556330200163146061100032000000Gengga Handros            AUTO PAYMENT GOLD'S GYM CL                                             0      14
096094722202752                   5409127771585624071400030000000Setiawan Halim            AUTO PAYMENT GOLD'S GYM CL                                             0      14
096094722200059                   5413220003256116091000026400000Agus Gunawan              AUTO PAYMENT GOLD'S GYM CL                                             0      14
096094722GCL002527                4556330020878519021100035000000Sandy Gloria              AUTO PAYMENT GOLD'S GYM CL                                             0      14
096094722201071                   5413227771109518051100025200000Kho Giok Kiau             AUTO PAYMENT GOLD'S GYM CL                                             0      14
096094722GCL000483                5413222880445614061000042900000Fetrus Kurniawan          AUTO PAYMENT GOLD'S GYM CL                                             0      14
096094722200863                   5413220005309004021100048000000. Ferry                   AUTO PAYMENT GOLD'S GYM CL                                             0      14
096094722203006                   4556330320104228061100038500000Felix Felix               AUTO PAYMENT GOLD'S GYM CL                                             0      14
096094722200494                   5413220005039908021100024000000Hartati Fakkar            AUTO PAYMENT GOLD'S GYM CL                                             0      14
096094722200666                   5409127771052112051000018000000. Ervina                  AUTO PAYMENT GOLD'S GYM CL                                             0      14
096094722200786                   5413220004183806121000024000000Eri                       AUTO PAYMENT GOLD'S GYM CL                                             0      14
096094722GCL000879                5409120005928009061100024000000Elmina                    AUTO PAYMENT GOLD'S GYM CL                                             0      14
096094722GCL003403                1319800762529714061300049500000Christian Barnabas        AUTO PAYMENT GOLD'S GYM CL                                             0      14
096094722200726                   4556320006034419051100010000000Ryan Damiano              AUTO PAYMENT GOLD'S GYM CL                                             0      14
096094722GCL002637                1888800663032736031300049500000Junar Charles             AUTO PAYMENT GOLD'S GYM CL                                             0      14
096094722GCL002855                5409121680114659121000027000000Wiliam Chandra            AUTO PAYMENT GOLD'S GYM CL                                             0      14
096094722GCL003443                1880801277692214081300032000000Stevanno Giovanni Rarung  AUTO PAYMENT GOLD'S GYM CL                                             0      14
096094722201065                   4556328881061233081000026400000Nabilla Caesar Devina     AUTO PAYMENT GOLD'S GYM CL                                             0      14
096094722200840                   5413220001013410031100024000000Rina Bong                 AUTO PAYMENT GOLD'S GYM CL                                             0      14
096094722GCL003402                1319800762529714061300049500000Christian Barnabas        AUTO PAYMENT GOLD'S GYM CL                                             0      14
096094722200126                   5413220006410900031000026400000Ardianto Sucinta          AUTO PAYMENT GOLD'S GYM CL                                             0      33
096094722200897                   5409120003645910111000024000000. Anthony                 AUTO PAYMENT GOLD'S GYM CL                                             0      14
096094722201343                   4556320006411203061100027000000Andy                      AUTO PAYMENT GOLD'S GYM CL                                             0      14
096094722GCL003425                1880801277692214081300032000000Stevanno G Rarung         AUTO PAYMENT GOLD'S GYM CL                                             0      14
096094722201455                   5409120090092737081000030000000Stephanie Amelia          AUTO PAYMENT GOLD'S GYM CL                                             0      14
